{
  "contractName": "BookRoom",
  "abi": [
    {
      "inputs": [
        {
          "internalType": "uint256",
          "name": "",
          "type": "uint256"
        }
      ],
      "name": "rooms",
      "outputs": [
        {
          "internalType": "uint256",
          "name": "id",
          "type": "uint256"
        },
        {
          "internalType": "string",
          "name": "name",
          "type": "string"
        },
        {
          "internalType": "address",
          "name": "owner",
          "type": "address"
        },
        {
          "internalType": "uint256",
          "name": "capacity",
          "type": "uint256"
        }
      ],
      "stateMutability": "view",
      "type": "function"
    },
    {
      "inputs": [],
      "name": "roomsCount",
      "outputs": [
        {
          "internalType": "uint256",
          "name": "",
          "type": "uint256"
        }
      ],
      "stateMutability": "view",
      "type": "function"
    },
    {
      "inputs": [
        {
          "internalType": "uint256",
          "name": "_id",
          "type": "uint256"
        }
      ],
      "name": "getRoom",
      "outputs": [
        {
          "internalType": "string",
          "name": "name",
          "type": "string"
        },
        {
          "internalType": "uint256",
          "name": "id",
          "type": "uint256"
        }
      ],
      "stateMutability": "view",
      "type": "function"
    }
  ],
  "bytecode": "0x608060405234801561001057600080fd5b50610549806100206000396000f3fe608060405234801561001057600080fd5b506004361061005e576000357c0100000000000000000000000000000000000000000000000000000000900480631bae0ac81461006357806341b82f3f146100965780636d8a74cb146100b4575b600080fd5b61007d600480360381019061007891906102d6565b6100e5565b60405161008d94939291906103ec565b60405180910390f35b61009e6101cd565b6040516100ab9190610438565b60405180910390f35b6100ce60048036038101906100c991906102d6565b6101d3565b6040516100dc929190610453565b60405180910390f35b600281815481106100f557600080fd5b906000526020600020906004020160009150905080600001549080600101805461011e906104b2565b80601f016020809104026020016040519081016040528092919081815260200182805461014a906104b2565b80156101975780601f1061016c57610100808354040283529160200191610197565b820191906000526020600020905b81548152906001019060200180831161017a57829003601f168201915b5050505050908060020160009054906101000a900473ffffffffffffffffffffffffffffffffffffffff16908060030154905084565b60005481565b6060600080600284815481106101ec576101eb6104e4565b5b90600052602060002090600402019050806001018160000154818054610211906104b2565b80601f016020809104026020016040519081016040528092919081815260200182805461023d906104b2565b801561028a5780601f1061025f5761010080835404028352916020019161028a565b820191906000526020600020905b81548152906001019060200180831161026d57829003601f168201915b505050505091509250925050915091565b600080fd5b6000819050919050565b6102b3816102a0565b81146102be57600080fd5b50565b6000813590506102d0816102aa565b92915050565b6000602082840312156102ec576102eb61029b565b5b60006102fa848285016102c1565b91505092915050565b61030c816102a0565b82525050565b600081519050919050565b600082825260208201905092915050565b60005b8381101561034c578082015181840152602081019050610331565b8381111561035b576000848401525b50505050565b6000601f19601f8301169050919050565b600061037d82610312565b610387818561031d565b935061039781856020860161032e565b6103a081610361565b840191505092915050565b600073ffffffffffffffffffffffffffffffffffffffff82169050919050565b60006103d6826103ab565b9050919050565b6103e6816103cb565b82525050565b60006080820190506104016000830187610303565b81810360208301526104138186610372565b905061042260408301856103dd565b61042f6060830184610303565b95945050505050565b600060208201905061044d6000830184610303565b92915050565b6000604082019050818103600083015261046d8185610372565b905061047c6020830184610303565b9392505050565b7f4e487b7100000000000000000000000000000000000000000000000000000000600052602260045260246000fd5b600060028204905060018216806104ca57607f821691505b602082108114156104de576104dd610483565b5b50919050565b7f4e487b7100000000000000000000000000000000000000000000000000000000600052603260045260246000fdfea2646970667358221220a36c42e14dd4493c795dbf0fdf9410de649846da2db22837a9d2f4f317c0f48a64736f6c634300080b0033",
  "immutableReferences": {},
  "source": "// SPDX-License-Identifier: MIT\npragma solidity ^0.8.0;\n\n//example hotel smart contract\n\ncontract BookRoom {\n\n    struct Room {\n        uint256 id;\n        string name;\n        address owner;\n        uint256 capacity;\n        // TimeSlot[12] timeslot;\n    }\n    // struct TimeSlot {\n    //     uint256 roomId; // room ID + renter addres + checkIn + checkOut\n    //     address renter;\n    //     string checkIn;\n    //     string checkOut;\n    //     bool booked;\n    // }\n\n    // mapping acts as a associative array of key => value , here key is unsigned\n    // int and value is structure\n    // mapping (uint => Room) public rooms;\n\n    // Store hotel count - we cannot iterate or find size in mapping\n    uint256 public roomsCount;\n\n    // Amount is send to owners address , owner will auto set to the deployed one\n    address owner;\n\n    // Constructor called when contract is deployed or migrated\n    // constructor() public {\n    //     // Set the contract creater as the owner\n    //     owner = msg.sender;\n\n    //     for (uint256 i = 1; i < 20; i++) {\n    //         addRoom(i, owner);\n    //     }\n    // }\n    Room[] public rooms;\n\n    function createRoom(uint256 _id, string memory _name,address _owner) internal returns (bool) {\n        rooms.push(Room({\n            id:_id,\n            name:_name,\n            owner:_owner,\n            capacity:18 \n            }));\n        return true;\n    }\n\n    function getRoom(uint256 _id) public view returns (string memory name, uint id) {\n        Room storage room =  rooms[_id];\n        return (room.name, room.id);\n    }\n\n    // function bookRoom(uint256 _id, address renter, string memory checkIn, string memory checkOut) public returns (bool) {\n    //     Room storage room =  rooms[_id];\n    //         // if (room){\n\n    //         // }\n    //         room.renter=renter;\n    //         room.checkIn=checkIn;\n    //         room.checkOut= checkOut;\n    //     return true;\n    // }\n\n}\n",
  "sourcePath": "/Users/alex/go/src/test/booking-system/contracts/bookingService.sol",
  "compiler": {
    "name": "solc",
    "version": "0.8.11+commit.d7f03943.Emscripten.clang"
  },
  "schemaVersion": "3.4.4",
  "updatedAt": "2022-01-21T16:34:22.222Z",
  "devdoc": {
    "kind": "dev",
    "methods": {},
    "version": 1
  },
  "userdoc": {
    "kind": "user",
    "methods": {},
    "version": 1
  }
}