{
  "contractName": "BookRoom",
  "abi": [
    {
      "inputs": [
        {
          "internalType": "uint256",
          "name": "",
          "type": "uint256"
        }
      ],
      "name": "rooms",
      "outputs": [
        {
          "internalType": "uint256",
          "name": "id",
          "type": "uint256"
        },
        {
          "internalType": "string",
          "name": "name",
          "type": "string"
        },
        {
          "internalType": "address",
          "name": "owner",
          "type": "address"
        },
        {
          "internalType": "uint256",
          "name": "capacity",
          "type": "uint256"
        }
      ],
      "stateMutability": "view",
      "type": "function"
    },
    {
      "inputs": [],
      "name": "roomsCount",
      "outputs": [
        {
          "internalType": "uint256",
          "name": "",
          "type": "uint256"
        }
      ],
      "stateMutability": "view",
      "type": "function"
    },
    {
      "inputs": [
        {
          "internalType": "uint256",
          "name": "_id",
          "type": "uint256"
        },
        {
          "internalType": "string",
          "name": "_name",
          "type": "string"
        },
        {
          "internalType": "address",
          "name": "_owner",
          "type": "address"
        }
      ],
      "name": "createRoom",
      "outputs": [
        {
          "internalType": "bool",
          "name": "",
          "type": "bool"
        }
      ],
      "stateMutability": "nonpayable",
      "type": "function"
    },
    {
      "inputs": [
        {
          "internalType": "uint256",
          "name": "_id",
          "type": "uint256"
        }
      ],
      "name": "getRoom",
      "outputs": [
        {
          "internalType": "string",
          "name": "name",
          "type": "string"
        },
        {
          "internalType": "uint256",
          "name": "id",
          "type": "uint256"
        }
      ],
      "stateMutability": "view",
      "type": "function"
    },
    {
      "inputs": [
        {
          "internalType": "uint256",
          "name": "_id",
          "type": "uint256"
        }
      ],
      "name": "getRoomCapacity",
      "outputs": [
        {
          "internalType": "uint256",
          "name": "capacity",
          "type": "uint256"
        }
      ],
      "stateMutability": "view",
      "type": "function"
    },
    {
      "inputs": [
        {
          "internalType": "uint256",
          "name": "_id",
          "type": "uint256"
        }
      ],
      "name": "getRoomOwner",
      "outputs": [
        {
          "internalType": "address",
          "name": "addr",
          "type": "address"
        }
      ],
      "stateMutability": "view",
      "type": "function"
    }
  ],
  "bytecode": "0x608060405234801561001057600080fd5b50610a3f806100206000396000f3fe608060405234801561001057600080fd5b506004361061007f576000357c0100000000000000000000000000000000000000000000000000000000900480631bae0ac81461008457806341b82f3f146100b75780636d8a74cb146100d55780636ee883011461010657806395ce86d214610136578063e532e06814610166575b600080fd5b61009e600480360381019061009991906105ab565b610196565b6040516100ae94939291906106c1565b60405180910390f35b6100bf61027e565b6040516100cc919061070d565b60405180910390f35b6100ef60048036038101906100ea91906105ab565b610284565b6040516100fd929190610728565b60405180910390f35b610120600480360381019061011b91906105ab565b61034c565b60405161012d9190610758565b60405180910390f35b610150600480360381019061014b91906105ab565b6103a0565b60405161015d919061070d565b60405180910390f35b610180600480360381019061017b91906108d4565b6103d4565b60405161018d919061095e565b60405180910390f35b600281815481106101a657600080fd5b90600052602060002090600402016000915090508060000154908060010180546101cf906109a8565b80601f01602080910402602001604051908101604052809291908181526020018280546101fb906109a8565b80156102485780601f1061021d57610100808354040283529160200191610248565b820191906000526020600020905b81548152906001019060200180831161022b57829003601f168201915b5050505050908060020160009054906101000a900473ffffffffffffffffffffffffffffffffffffffff16908060030154905084565b60005481565b60606000806002848154811061029d5761029c6109da565b5b906000526020600020906004020190508060010181600001548180546102c2906109a8565b80601f01602080910402602001604051908101604052809291908181526020018280546102ee906109a8565b801561033b5780601f106103105761010080835404028352916020019161033b565b820191906000526020600020905b81548152906001019060200180831161031e57829003601f168201915b505050505091509250925050915091565b60008060028381548110610363576103626109da565b5b906000526020600020906004020190508060020160009054906101000a900473ffffffffffffffffffffffffffffffffffffffff16915050919050565b600080600283815481106103b7576103b66109da565b5b906000526020600020906004020190508060030154915050919050565b6000600260405180608001604052808681526020018581526020018473ffffffffffffffffffffffffffffffffffffffff1681526020016012815250908060018154018082558091505060019003906000526020600020906004020160009091909190915060008201518160000155602082015181600101908051906020019061045f9291906104be565b5060408201518160020160006101000a81548173ffffffffffffffffffffffffffffffffffffffff021916908373ffffffffffffffffffffffffffffffffffffffff160217905550606082015181600301555050600190509392505050565b8280546104ca906109a8565b90600052602060002090601f0160209004810192826104ec5760008555610533565b82601f1061050557805160ff1916838001178555610533565b82800160010185558215610533579182015b82811115610532578251825591602001919060010190610517565b5b5090506105409190610544565b5090565b5b8082111561055d576000816000905550600101610545565b5090565b6000604051905090565b600080fd5b600080fd5b6000819050919050565b61058881610575565b811461059357600080fd5b50565b6000813590506105a58161057f565b92915050565b6000602082840312156105c1576105c061056b565b5b60006105cf84828501610596565b91505092915050565b6105e181610575565b82525050565b600081519050919050565b600082825260208201905092915050565b60005b83811015610621578082015181840152602081019050610606565b83811115610630576000848401525b50505050565b6000601f19601f8301169050919050565b6000610652826105e7565b61065c81856105f2565b935061066c818560208601610603565b61067581610636565b840191505092915050565b600073ffffffffffffffffffffffffffffffffffffffff82169050919050565b60006106ab82610680565b9050919050565b6106bb816106a0565b82525050565b60006080820190506106d660008301876105d8565b81810360208301526106e88186610647565b90506106f760408301856106b2565b61070460608301846105d8565b95945050505050565b600060208201905061072260008301846105d8565b92915050565b600060408201905081810360008301526107428185610647565b905061075160208301846105d8565b9392505050565b600060208201905061076d60008301846106b2565b92915050565b600080fd5b600080fd5b7f4e487b7100000000000000000000000000000000000000000000000000000000600052604160045260246000fd5b6107b582610636565b810181811067ffffffffffffffff821117156107d4576107d361077d565b5b80604052505050565b60006107e7610561565b90506107f382826107ac565b919050565b600067ffffffffffffffff8211156108135761081261077d565b5b61081c82610636565b9050602081019050919050565b82818337600083830152505050565b600061084b610846846107f8565b6107dd565b90508281526020810184848401111561086757610866610778565b5b610872848285610829565b509392505050565b600082601f83011261088f5761088e610773565b5b813561089f848260208601610838565b91505092915050565b6108b1816106a0565b81146108bc57600080fd5b50565b6000813590506108ce816108a8565b92915050565b6000806000606084860312156108ed576108ec61056b565b5b60006108fb86828701610596565b935050602084013567ffffffffffffffff81111561091c5761091b610570565b5b6109288682870161087a565b9250506040610939868287016108bf565b9150509250925092565b60008115159050919050565b61095881610943565b82525050565b6000602082019050610973600083018461094f565b92915050565b7f4e487b7100000000000000000000000000000000000000000000000000000000600052602260045260246000fd5b600060028204905060018216806109c057607f821691505b602082108114156109d4576109d3610979565b5b50919050565b7f4e487b7100000000000000000000000000000000000000000000000000000000600052603260045260246000fdfea26469706673582212209dfde657c7cde5e702c9aa11f3923d209b5bfc5abc554f86ff56dc17cf5d20a764736f6c634300080b0033",
  "immutableReferences": {},
  "source": "// SPDX-License-Identifier: MIT\npragma solidity ^0.8.0;\n\n// import \"@openzeppelin/contracts/utils/Strings.sol\";\n//example hotel smart contract\n\ncontract BookRoom {\n\n    struct Room {\n        uint256 id;\n        string name;\n        address owner;\n        uint256 capacity;\n        // TimeSlot[12] timeslot;\n    }\n    // struct TimeSlot {\n    //     uint256 roomId; // room ID + renter addres + checkIn + checkOut\n    //     address renter;\n    //     string checkIn;\n    //     string checkOut;\n    //     bool booked;\n    // }\n\n    // mapping acts as a associative array of key => value , here key is unsigned\n    // int and value is structure\n    // mapping (uint => Room) public rooms;\n\n    // Store hotel count - we cannot iterate or find size in mapping\n    uint256 public roomsCount;\n\n    // Amount is send to owners address , owner will auto set to the deployed one\n    address owner;\n\n    // Constructor called when contract is deployed or migrated\n    // constructor() public {\n    //     // Set the contract creater as the owner\n    //     owner = msg.sender;\n    // }\n    //     // createRoom(1, \"room1\", owner);\n    //     // createRoom(2, \"room2\", owner);\n    //     // for (uint256 i = 1; i < 20; i++) {\n    //     // }\n    // }\n    Room[] public rooms;\n\n    function createRoom(uint256 _id, string memory _name,address _owner) public returns (bool) {\n        rooms.push(Room({\n            id:_id,\n            name:_name,\n            owner:_owner,\n            capacity:18 \n            }));\n        return true;\n    }\n\n    function getRoom(uint256 _id) public view returns (string memory name, uint id) {\n        Room storage room =  rooms[_id];\n        return (room.name, room.id);\n    }\n\n    function getRoomCapacity(uint256 _id) public view returns (uint256 capacity) {\n        Room storage room =  rooms[_id];\n        return (room.capacity);\n    }\n\n    function getRoomOwner(uint256 _id) public view returns (address addr) {\n        Room storage room =  rooms[_id];\n        return (room.owner);\n    }\n\n    // function bookRoom(uint256 _id, address renter, string memory checkIn, string memory checkOut) public returns (bool) {\n    //     Room storage room =  rooms[_id];\n    //         // if (room){\n\n    //         // }\n    //         room.renter=renter;\n    //         room.checkIn=checkIn;\n    //         room.checkOut= checkOut;\n    //     return true;\n    // }\n\n}\n",
  "sourcePath": "/Users/alex/go/src/test/booking-system/contracts/bookingService.sol",
  "compiler": {
    "name": "solc",
    "version": "0.8.11+commit.d7f03943.Emscripten.clang"
  },
  "schemaVersion": "3.4.4",
  "updatedAt": "2022-01-25T11:12:15.951Z",
  "devdoc": {
    "kind": "dev",
    "methods": {},
    "version": 1
  },
  "userdoc": {
    "kind": "user",
    "methods": {},
    "version": 1
  }
}